{
  "_format": "hh-sol-artifact-1",
  "contractName": "StknICO",
  "sourceName": "contracts/StknICO.sol",
  "abi": [
    {
      "inputs": [
        {
          "internalType": "address payable",
          "name": "_icoWallet",
          "type": "address"
        },
        {
          "internalType": "address",
          "name": "_token",
          "type": "address"
        }
      ],
      "stateMutability": "nonpayable",
      "type": "constructor"
    },
    {
      "anonymous": false,
      "inputs": [
        {
          "indexed": true,
          "internalType": "address",
          "name": "from",
          "type": "address"
        },
        {
          "indexed": true,
          "internalType": "address",
          "name": "to",
          "type": "address"
        },
        {
          "indexed": false,
          "internalType": "uint256",
          "name": "value",
          "type": "uint256"
        },
        {
          "indexed": false,
          "internalType": "uint256",
          "name": "tokens",
          "type": "uint256"
        }
      ],
      "name": "Invest",
      "type": "event"
    },
    {
      "anonymous": false,
      "inputs": [
        {
          "indexed": false,
          "internalType": "address",
          "name": "to",
          "type": "address"
        },
        {
          "indexed": false,
          "internalType": "uint256",
          "name": "amount",
          "type": "uint256"
        },
        {
          "indexed": false,
          "internalType": "uint256",
          "name": "time",
          "type": "uint256"
        }
      ],
      "name": "TokenBurn",
      "type": "event"
    },
    {
      "stateMutability": "payable",
      "type": "fallback"
    },
    {
      "inputs": [],
      "name": "ICOState",
      "outputs": [
        {
          "internalType": "enum StknICO.State",
          "name": "",
          "type": "uint8"
        }
      ],
      "stateMutability": "view",
      "type": "function"
    },
    {
      "inputs": [],
      "name": "ICOWallet",
      "outputs": [
        {
          "internalType": "address payable",
          "name": "",
          "type": "address"
        }
      ],
      "stateMutability": "view",
      "type": "function"
    },
    {
      "inputs": [],
      "name": "admin",
      "outputs": [
        {
          "internalType": "address",
          "name": "",
          "type": "address"
        }
      ],
      "stateMutability": "view",
      "type": "function"
    },
    {
      "inputs": [],
      "name": "burn",
      "outputs": [
        {
          "internalType": "bool",
          "name": "",
          "type": "bool"
        }
      ],
      "stateMutability": "nonpayable",
      "type": "function"
    },
    {
      "inputs": [
        {
          "internalType": "address",
          "name": "_newAdmin",
          "type": "address"
        }
      ],
      "name": "changeAdmin",
      "outputs": [],
      "stateMutability": "nonpayable",
      "type": "function"
    },
    {
      "inputs": [
        {
          "internalType": "address payable",
          "name": "_newICOWallet",
          "type": "address"
        }
      ],
      "name": "changeICOWallet",
      "outputs": [],
      "stateMutability": "nonpayable",
      "type": "function"
    },
    {
      "inputs": [],
      "name": "endIco",
      "outputs": [],
      "stateMutability": "nonpayable",
      "type": "function"
    },
    {
      "inputs": [],
      "name": "getICOState",
      "outputs": [
        {
          "internalType": "string",
          "name": "",
          "type": "string"
        }
      ],
      "stateMutability": "view",
      "type": "function"
    },
    {
      "inputs": [],
      "name": "getICOTokenBalance",
      "outputs": [
        {
          "internalType": "uint256",
          "name": "",
          "type": "uint256"
        }
      ],
      "stateMutability": "view",
      "type": "function"
    },
    {
      "inputs": [],
      "name": "haltICO",
      "outputs": [],
      "stateMutability": "nonpayable",
      "type": "function"
    },
    {
      "inputs": [],
      "name": "hardCap",
      "outputs": [
        {
          "internalType": "uint256",
          "name": "",
          "type": "uint256"
        }
      ],
      "stateMutability": "view",
      "type": "function"
    },
    {
      "inputs": [],
      "name": "icoEndTime",
      "outputs": [
        {
          "internalType": "uint256",
          "name": "",
          "type": "uint256"
        }
      ],
      "stateMutability": "view",
      "type": "function"
    },
    {
      "inputs": [],
      "name": "icoStartTime",
      "outputs": [
        {
          "internalType": "uint256",
          "name": "",
          "type": "uint256"
        }
      ],
      "stateMutability": "view",
      "type": "function"
    },
    {
      "inputs": [],
      "name": "invest",
      "outputs": [
        {
          "internalType": "bool",
          "name": "",
          "type": "bool"
        }
      ],
      "stateMutability": "payable",
      "type": "function"
    },
    {
      "inputs": [
        {
          "internalType": "address",
          "name": "",
          "type": "address"
        }
      ],
      "name": "investedAmountOf",
      "outputs": [
        {
          "internalType": "uint256",
          "name": "",
          "type": "uint256"
        }
      ],
      "stateMutability": "view",
      "type": "function"
    },
    {
      "inputs": [
        {
          "internalType": "address",
          "name": "_investor",
          "type": "address"
        }
      ],
      "name": "investorBalanceOf",
      "outputs": [
        {
          "internalType": "uint256",
          "name": "",
          "type": "uint256"
        }
      ],
      "stateMutability": "view",
      "type": "function"
    },
    {
      "inputs": [],
      "name": "maxInvestment",
      "outputs": [
        {
          "internalType": "uint256",
          "name": "",
          "type": "uint256"
        }
      ],
      "stateMutability": "view",
      "type": "function"
    },
    {
      "inputs": [],
      "name": "minInvestment",
      "outputs": [
        {
          "internalType": "uint256",
          "name": "",
          "type": "uint256"
        }
      ],
      "stateMutability": "view",
      "type": "function"
    },
    {
      "inputs": [],
      "name": "raisedAmount",
      "outputs": [
        {
          "internalType": "uint256",
          "name": "",
          "type": "uint256"
        }
      ],
      "stateMutability": "view",
      "type": "function"
    },
    {
      "inputs": [],
      "name": "resumeICO",
      "outputs": [],
      "stateMutability": "nonpayable",
      "type": "function"
    },
    {
      "inputs": [],
      "name": "startICO",
      "outputs": [],
      "stateMutability": "nonpayable",
      "type": "function"
    },
    {
      "inputs": [],
      "name": "token",
      "outputs": [
        {
          "internalType": "contract IERC20",
          "name": "",
          "type": "address"
        }
      ],
      "stateMutability": "view",
      "type": "function"
    },
    {
      "inputs": [],
      "name": "tokenPrice",
      "outputs": [
        {
          "internalType": "uint256",
          "name": "",
          "type": "uint256"
        }
      ],
      "stateMutability": "view",
      "type": "function"
    },
    {
      "stateMutability": "payable",
      "type": "receive"
    }
  ],
  "bytecode": "0x608060405264e8d4a51000600355681b1ae4d6e2ef5000006004556509184e72a0006006556729a2241af62c000060075534801561003c57600080fd5b506040516111a03803806111a083398101604081905261005b916100af565b600080546001600160a01b03199081163317909155600180546001600160a01b03948516908316179055600280549290931691161790556100e9565b6001600160a01b03811681146100ac57600080fd5b50565b600080604083850312156100c257600080fd5b82516100cd81610097565b60208401519092506100de81610097565b809150509250929050565b6110a8806100f86000396000f3fe6080604052600436106101425760003560e01c80638ac2c680116100b6578063c59ee1dc1161006f578063c59ee1dc14610361578063e657807b14610377578063e8b5e51f1461038c578063f851a44014610394578063fb86a404146103b4578063fc0c546a146103ca57610151565b80638ac2c680146102a15780638f283970146102b75780639cbd7da5146102d7578063a7c3d71b146102ec578063ae764df314610302578063aeecdc2c1461033a57610151565b806344df8e701161010857806344df8e70146102065780636127b2ca1461022b57806361fba37d146102405780637e1055b6146102605780637fa8c158146102765780637ff9b5961461028b57610151565b80622e131614610159578062f53e6914610182578063129caa18146101a25780631aae3460146101b75780632e659d93146101e457610151565b366101515761014f6103ea565b005b61014f6103ea565b34801561016557600080fd5b5061016f60075481565b6040519081526020015b60405180910390f35b34801561018e57600080fd5b5061014f61019d366004610ef0565b6107e1565b3480156101ae57600080fd5b5061014f61082d565b3480156101c357600080fd5b5061016f6101d2366004610ef0565b600a6020526000908152604090205481565b3480156101f057600080fd5b506101f96108cc565b6040516101799190610f14565b34801561021257600080fd5b5061021b6109af565b6040519015158152602001610179565b34801561023757600080fd5b5061016f610b8c565b34801561024c57600080fd5b5061016f61025b366004610ef0565b610bfe565b34801561026c57600080fd5b5061016f60095481565b34801561028257600080fd5b5061014f610c73565b34801561029757600080fd5b5061016f60035481565b3480156102ad57600080fd5b5061016f60065481565b3480156102c357600080fd5b5061014f6102d2366004610ef0565b610d03565b3480156102e357600080fd5b5061014f610d4f565b3480156102f857600080fd5b5061016f60085481565b34801561030e57600080fd5b50600154610322906001600160a01b031681565b6040516001600160a01b039091168152602001610179565b34801561034657600080fd5b50600b546103549060ff1681565b6040516101799190610f78565b34801561036d57600080fd5b5061016f60055481565b34801561038357600080fd5b5061014f610df2565b61021b6103ea565b3480156103a057600080fd5b50600054610322906001600160a01b031681565b3480156103c057600080fd5b5061016f60045481565b3480156103d657600080fd5b50600254610322906001600160a01b031681565b60006001600b5460ff16600381111561040557610405610f62565b1461044b5760405162461bcd60e51b815260206004820152601160248201527049434f2069736e27742072756e6e696e6760781b60448201526064015b60405180910390fd5b600654341015801561045f57506007543411155b6104ab5760405162461bcd60e51b815260206004820152601c60248201527f436865636b204d696e20616e64204d617820496e766573746d656e74000000006044820152606401610442565b600754336000908152600a60205260409020546104c9903490610fb6565b111561052a5760405162461bcd60e51b815260206004820152602a60248201527f496e766573746f722072656163686564206d6178696d756d20496e766573746d604482015269195b9d08105b5bdd5b9d60b21b6064820152608401610442565b6004543460055461053b9190610fb6565b11156105895760405162461bcd60e51b815260206004820152601960248201527f53656e642077697468696e20686172646361702072616e6765000000000000006044820152606401610442565b6009544211156105ea5760405162461bcd60e51b815260206004820152602660248201527f49434f20616c72656164792052656163686564204d6178696d756d2074696d65604482015265081b1a5b5a5d60d21b6064820152608401610442565b34600560008282546105fc9190610fb6565b9091555050336000908152600a602052604081208054349290610620908490610fb6565b90915550506001546040516000916001600160a01b03169034908381818185875af1925050503d8060008114610672576040519150601f19603f3d011682016040523d82523d6000602084013e610677565b606091505b50509050806106bb5760405162461bcd60e51b815260206004820152601060248201526f11985a5b1959081d1bc8125b9d995cdd60821b6044820152606401610442565b6000600354346106cb9190610fc9565b6106dd90670de0b6b3a7640000610feb565b60025460405163a9059cbb60e01b8152336004820152602481018390529192506000916001600160a01b039091169063a9059cbb906044016020604051808303816000875af1158015610734573d6000803e3d6000fd5b505050506040513d601f19601f82011682018060405250810190610758919061100a565b90508061079a5760405162461bcd60e51b815260206004820152601060248201526f11985a5b1959081d1bc8125b9d995cdd60821b6044820152606401610442565b6040805134815260208101849052339130917f2e206bbdd5787cd6d3e97144dec044f9f15dd77a257afd27fa70cad6f03feae3910160405180910390a36001935050505090565b6000546001600160a01b0316331461080b5760405162461bcd60e51b81526004016104429061102c565b600180546001600160a01b0319166001600160a01b0392909216919091179055565b6000546001600160a01b031633146108575760405162461bcd60e51b81526004016104429061102c565b6001600b5460ff16600381111561087057610870610f62565b146108b55760405162461bcd60e51b81526020600482015260156024820152741250d3c81a5cdb89dd081c9d5b9b9a5b99c81e595d605a1b6044820152606401610442565b600b80546003919060ff19166001835b0217905550565b60606000600b5460ff1660038111156108e7576108e7610f62565b03610912575060408051808201909152600b81526a139bdd0814dd185c9d195960aa1b602082015290565b6001600b5460ff16600381111561092b5761092b610f62565b03610952575060408051808201909152600781526652756e6e696e6760c81b602082015290565b6002600b5460ff16600381111561096b5761096b610f62565b0361098e5750604080518082019091526003815262115b9960ea1b602082015290565b5060408051808201909152600681526512185b1d195960d21b602082015290565b60006002600b5460ff1660038111156109ca576109ca610f62565b14610a0c5760405162461bcd60e51b81526020600482015260126024820152711250d3c81a5cdb89dd081bdd995c881e595d60721b6044820152606401610442565b6002546040516370a0823160e01b81523060048201526000916001600160a01b0316906370a0823190602401602060405180830381865afa158015610a55573d6000803e3d6000fd5b505050506040513d601f19601f82011682018060405250810190610a799190611059565b60025460405163a9059cbb60e01b8152600060048201819052602482018490529293506001600160a01b039091169063a9059cbb906044016020604051808303816000875af1158015610ad0573d6000803e3d6000fd5b505050506040513d601f19601f82011682018060405250810190610af4919061100a565b905080610b435760405162461bcd60e51b815260206004820152601f60248201527f4661696c656420746f206275726e2072656d61696e696e6720746f6b656e73006044820152606401610442565b604080516000815260208101849052428183015290517ffe9e0b0c1e3e9216717d5f66d10bc310b12c366417e150b4b1af9fb9620bca919181900360600190a160019250505090565b6002546040516370a0823160e01b81523060048201526000916001600160a01b0316906370a0823190602401602060405180830381865afa158015610bd5573d6000803e3d6000fd5b505050506040513d601f19601f82011682018060405250810190610bf99190611059565b905090565b6002546040516370a0823160e01b81526001600160a01b03838116600483015260009216906370a0823190602401602060405180830381865afa158015610c49573d6000803e3d6000fd5b505050506040513d601f19601f82011682018060405250810190610c6d9190611059565b92915050565b6000600b5460ff166003811115610c8c57610c8c610f62565b14610cd95760405162461bcd60e51b815260206004820152601960248201527f49434f2069736e277420696e206265666f7265207374617465000000000000006044820152606401610442565b426008819055610ced906301e13380610fb6565b600955600b80546001919060ff191682806108c5565b6000546001600160a01b03163314610d2d5760405162461bcd60e51b81526004016104429061102c565b600080546001600160a01b0319166001600160a01b0392909216919091179055565b6000546001600160a01b03163314610d795760405162461bcd60e51b81526004016104429061102c565b6003600b5460ff166003811115610d9257610d92610f62565b14610ddf5760405162461bcd60e51b815260206004820152601a60248201527f49434f2053746174652069736e27742068616c746564207965740000000000006044820152606401610442565b600b80546001919060ff191682806108c5565b6001600b5460ff166003811115610e0b57610e0b610f62565b14610e585760405162461bcd60e51b815260206004820152601e60248201527f49434f2053686f756c6420626520696e2052756e6e696e6720537461746500006044820152606401610442565b600954421180610e6c575060045460055410155b610ec45760405162461bcd60e51b8152602060048201526024808201527f49434f2048617264636170206f722074696d656c696d6974206e6f742072656160448201526318da195960e21b6064820152608401610442565b600b80546002919060ff19166001836108c5565b6001600160a01b0381168114610eed57600080fd5b50565b600060208284031215610f0257600080fd5b8135610f0d81610ed8565b9392505050565b600060208083528351808285015260005b81811015610f4157858101830151858201604001528201610f25565b506000604082860101526040601f19601f8301168501019250505092915050565b634e487b7160e01b600052602160045260246000fd5b6020810160048310610f9a57634e487b7160e01b600052602160045260246000fd5b91905290565b634e487b7160e01b600052601160045260246000fd5b80820180821115610c6d57610c6d610fa0565b600082610fe657634e487b7160e01b600052601260045260246000fd5b500490565b600081600019048311821515161561100557611005610fa0565b500290565b60006020828403121561101c57600080fd5b81518015158114610f0d57600080fd5b60208082526013908201527220b236b4b71027b7363c90333ab731ba34b7b760691b604082015260600190565b60006020828403121561106b57600080fd5b505191905056fea2646970667358221220410435a18046cf54794400c162fdf5ea795747a8570f409ea2bae32c061ec31d64736f6c63430008100033",
  "linkReferences": {},
  "deployedLinkReferences": {}
}